:100000000C942A000C943C000C943C000C943C0092
:100010000C943C000C943C000C943C000C943C0070
:100020000C943C000C943C000C943C000C943C0060
:100030000C943C000C943C000C943C000C943C0050
:100040000C9460000C943C000C943C000C943C001C
:100050000C943C0011241FBECFE5D8E0DEBFCDBF1D
:1000600020E0A0E6B0E001C01D92A836B207E1F79B
:100070000E943E000C9443010C9400002FE38DE09D
:1000800093E0215080409040E1F700C00000329A98
:10009000339A3D9A3E9A379A7894369A81B38FEF85
:1000A00081BB97B387BB88B388BB8FB5826F8FBD89
:1000B0008EB589618EBD8FE19EE497BD86BDFFCF71
:1000C0001F920F920FB60F9211242F938F939F932D
:1000D000EF93FF9385B190E0909367008093660063
:1000E00087B1813609F450C018F4803641F0B4C0AD
:1000F000823609F491C0833609F4ACC0ADC080915A
:1001000066009091670090936500809364008091F1
:10011000640090916500813A910550F080EB96E380
:100120009BBD8ABD99BD88BDC09AC39AC198C2982B
:100130008091640090916500813A910540F480912E
:100140006400909165008237910508F087C0809126
:100150006400909165008137910598F488E893E1F7
:100160009BBD8ABD99BD88BDC19AC39AC098C298EB
:100170002FEF89EF90E0215080409040E1F700C0E0
:10018000000081E687B968C08091660090916700A1
:10019000909363008093620080916200909163006D
:1001A0008B35910560F488EB9BE09BBD8ABD88E6AA
:1001B00092E499BD88BDC09AC39AC198C2988091B3
:1001C000620090916300813A910518F188E692E40B
:1001D0009BBD8ABD99BD88BDC09AC39AC198C2987B
:1001E000E7EAF1E63197F1F700C000009BBD8ABD58
:1001F00088E893E199BD88BDC09AC39AC198C29816
:10020000FFE82CED81E0F15020408040E1F700C094
:10021000000082E687B920C0809166009091670057
:1002200090936100809360008091600090916100E4
:100230008B35910560F488E692E49BBD8ABD88EB1E
:100240009BE099BD88BDC09AC39AC198C29883E6C5
:1002500087B902C080E687B9369A0BC080E89EE372
:100260009BBD8ABD99BD88BDC09AC39AC198C298EA
:100270006ECFFF91EF919F918F912F910F900FBEB5
:0A0280000F901F901895F894FFCF1F
:00000001FF
